{
  "contractName": "Lottery",
  "abi": [
    {
      "inputs": [
        {
          "internalType": "string",
          "name": "_name",
          "type": "string"
        },
        {
          "internalType": "uint256",
          "name": "_ticketPrice",
          "type": "uint256"
        },
        {
          "internalType": "uint256",
          "name": "_deadline",
          "type": "uint256"
        },
        {
          "internalType": "uint256",
          "name": "_prize",
          "type": "uint256"
        },
        {
          "internalType": "address",
          "name": "_creator",
          "type": "address"
        }
      ],
      "stateMutability": "payable",
      "type": "constructor"
    },
    {
      "inputs": [],
      "name": "claimed",
      "outputs": [
        {
          "internalType": "bool",
          "name": "",
          "type": "bool"
        }
      ],
      "stateMutability": "view",
      "type": "function"
    },
    {
      "inputs": [],
      "name": "deadline",
      "outputs": [
        {
          "internalType": "uint256",
          "name": "",
          "type": "uint256"
        }
      ],
      "stateMutability": "view",
      "type": "function"
    },
    {
      "inputs": [],
      "name": "manager",
      "outputs": [
        {
          "internalType": "address",
          "name": "",
          "type": "address"
        }
      ],
      "stateMutability": "view",
      "type": "function"
    },
    {
      "inputs": [],
      "name": "name",
      "outputs": [
        {
          "internalType": "string",
          "name": "",
          "type": "string"
        }
      ],
      "stateMutability": "view",
      "type": "function"
    },
    {
      "inputs": [
        {
          "internalType": "uint256",
          "name": "",
          "type": "uint256"
        }
      ],
      "name": "players",
      "outputs": [
        {
          "internalType": "address",
          "name": "",
          "type": "address"
        }
      ],
      "stateMutability": "view",
      "type": "function"
    },
    {
      "inputs": [],
      "name": "prize",
      "outputs": [
        {
          "internalType": "uint256",
          "name": "",
          "type": "uint256"
        }
      ],
      "stateMutability": "view",
      "type": "function"
    },
    {
      "inputs": [],
      "name": "ticketPrice",
      "outputs": [
        {
          "internalType": "uint256",
          "name": "",
          "type": "uint256"
        }
      ],
      "stateMutability": "view",
      "type": "function"
    },
    {
      "inputs": [],
      "name": "winner",
      "outputs": [
        {
          "internalType": "address",
          "name": "",
          "type": "address"
        }
      ],
      "stateMutability": "view",
      "type": "function"
    },
    {
      "inputs": [],
      "name": "buyTicket",
      "outputs": [],
      "stateMutability": "payable",
      "type": "function"
    },
    {
      "inputs": [],
      "name": "pickWinner",
      "outputs": [],
      "stateMutability": "nonpayable",
      "type": "function"
    },
    {
      "inputs": [],
      "name": "claimPrize",
      "outputs": [],
      "stateMutability": "nonpayable",
      "type": "function"
    },
    {
      "inputs": [],
      "name": "getPlayers",
      "outputs": [
        {
          "internalType": "address[]",
          "name": "",
          "type": "address[]"
        }
      ],
      "stateMutability": "view",
      "type": "function"
    },
    {
      "inputs": [],
      "name": "getWinner",
      "outputs": [
        {
          "internalType": "address",
          "name": "",
          "type": "address"
        }
      ],
      "stateMutability": "view",
      "type": "function"
    }
  ],
  "bytecode": "0x608060405260405162001bf838038062001bf8833981810160405281019062000029919062000387565b5f84116200006e576040517f08c379a0000000000000000000000000000000000000000000000000000000008152600401620000659062000488565b60405180910390fd5b5f8211620000b3576040517f08c379a0000000000000000000000000000000000000000000000000000000008152600401620000aa90620004f6565b60405180910390fd5b5f8311620000f8576040517f08c379a0000000000000000000000000000000000000000000000000000000008152600401620000ef9062000564565b60405180910390fd5b845f9081620001089190620007b2565b508360018190555082600281905550816003819055508060045f6101000a81548173ffffffffffffffffffffffffffffffffffffffff021916908373ffffffffffffffffffffffffffffffffffffffff160217905550505050505062000896565b5f604051905090565b5f80fd5b5f80fd5b5f80fd5b5f80fd5b5f601f19601f8301169050919050565b7f4e487b71000000000000000000000000000000000000000000000000000000005f52604160045260245ffd5b620001ca8262000182565b810181811067ffffffffffffffff82111715620001ec57620001eb62000192565b5b80604052505050565b5f6200020062000169565b90506200020e8282620001bf565b919050565b5f67ffffffffffffffff82111562000230576200022f62000192565b5b6200023b8262000182565b9050602081019050919050565b5f5b83811015620002675780820151818401526020810190506200024a565b5f8484015250505050565b5f62000288620002828462000213565b620001f5565b905082815260208101848484011115620002a757620002a66200017e565b5b620002b484828562000248565b509392505050565b5f82601f830112620002d357620002d26200017a565b5b8151620002e584826020860162000272565b91505092915050565b5f819050919050565b6200030281620002ee565b81146200030d575f80fd5b50565b5f815190506200032081620002f7565b92915050565b5f73ffffffffffffffffffffffffffffffffffffffff82169050919050565b5f620003518262000326565b9050919050565b620003638162000345565b81146200036e575f80fd5b50565b5f81519050620003818162000358565b92915050565b5f805f805f60a08688031215620003a357620003a262000172565b5b5f86015167ffffffffffffffff811115620003c357620003c262000176565b5b620003d188828901620002bc565b9550506020620003e48882890162000310565b9450506040620003f78882890162000310565b93505060606200040a8882890162000310565b92505060806200041d8882890162000371565b9150509295509295909350565b5f82825260208201905092915050565b7f5469636b6574207072696365206d757374206265203e203000000000000000005f82015250565b5f620004706018836200042a565b91506200047d826200043a565b602082019050919050565b5f6020820190508181035f830152620004a18162000462565b9050919050565b7f5072697a65206d757374206265203e20300000000000000000000000000000005f82015250565b5f620004de6011836200042a565b9150620004eb82620004a8565b602082019050919050565b5f6020820190508181035f8301526200050f81620004d0565b9050919050565b7f4475726174696f6e206d757374206265203e20300000000000000000000000005f82015250565b5f6200054c6014836200042a565b9150620005598262000516565b602082019050919050565b5f6020820190508181035f8301526200057d816200053e565b9050919050565b5f81519050919050565b7f4e487b71000000000000000000000000000000000000000000000000000000005f52602260045260245ffd5b5f6002820490506001821680620005d357607f821691505b602082108103620005e957620005e86200058e565b5b50919050565b5f819050815f5260205f209050919050565b5f6020601f8301049050919050565b5f82821b905092915050565b5f600883026200064d7fffffffffffffffffffffffffffffffffffffffffffffffffffffffffffffffff8262000610565b62000659868362000610565b95508019841693508086168417925050509392505050565b5f819050919050565b5f6200069a620006946200068e84620002ee565b62000671565b620002ee565b9050919050565b5f819050919050565b620006b5836200067a565b620006cd620006c482620006a1565b8484546200061c565b825550505050565b5f90565b620006e3620006d5565b620006f0818484620006aa565b505050565b5b8181101562000717576200070b5f82620006d9565b600181019050620006f6565b5050565b601f82111562000766576200073081620005ef565b6200073b8462000601565b810160208510156200074b578190505b620007636200075a8562000601565b830182620006f5565b50505b505050565b5f82821c905092915050565b5f620007885f19846008026200076b565b1980831691505092915050565b5f620007a2838362000777565b9150826002028217905092915050565b620007bd8262000584565b67ffffffffffffffff811115620007d957620007d862000192565b5b620007e58254620005bb565b620007f28282856200071b565b5f60209050601f83116001811462000828575f841562000813578287015190505b6200081f858262000795565b8655506200088e565b601f1984166200083886620005ef565b5f5b8281101562000861578489015182556001820191506020850194506020810190506200083a565b868310156200088157848901516200087d601f89168262000777565b8355505b6001600288020188555050505b505050505050565b61135480620008a45f395ff3fe6080604052600436106100c1575f3560e01c80638b5b9ccc1161007e578063e3ac5d2611610058578063e3ac5d2614610217578063e834a83414610241578063edca914c1461026b578063f71d96cb14610275576100c1565b80638b5b9ccc146101995780638e7ea5b2146101c3578063dfbf53ae146101ed576100c1565b806306fdde03146100c55780631209b1f6146100ef57806329dcb0cf14610119578063481c6a75146101435780635d495aea1461016d57806370740ac914610183575b5f80fd5b3480156100d0575f80fd5b506100d96102b1565b6040516100e69190610b5c565b60405180910390f35b3480156100fa575f80fd5b5061010361033c565b6040516101109190610b94565b60405180910390f35b348015610124575f80fd5b5061012d610342565b60405161013a9190610b94565b60405180910390f35b34801561014e575f80fd5b50610157610348565b6040516101649190610bec565b60405180910390f35b348015610178575f80fd5b5061018161036d565b005b34801561018e575f80fd5b506101976105ed565b005b3480156101a4575f80fd5b506101ad610750565b6040516101ba9190610cbc565b60405180910390f35b3480156101ce575f80fd5b506101d76107db565b6040516101e49190610bec565b60405180910390f35b3480156101f8575f80fd5b50610201610803565b60405161020e9190610bec565b60405180910390f35b348015610222575f80fd5b5061022b610828565b6040516102389190610b94565b60405180910390f35b34801561024c575f80fd5b5061025561082e565b6040516102629190610cf6565b60405180910390f35b610273610841565b005b348015610280575f80fd5b5061029b60048036038101906102969190610d3d565b610a97565b6040516102a89190610bec565b60405180910390f35b5f80546102bd90610d95565b80601f01602080910402602001604051908101604052809291908181526020018280546102e990610d95565b80156103345780601f1061030b57610100808354040283529160200191610334565b820191905f5260205f20905b81548152906001019060200180831161031757829003601f168201915b505050505081565b60015481565b60025481565b60045f9054906101000a900473ffffffffffffffffffffffffffffffffffffffff1681565b60045f9054906101000a900473ffffffffffffffffffffffffffffffffffffffff1673ffffffffffffffffffffffffffffffffffffffff163373ffffffffffffffffffffffffffffffffffffffff16146103fc576040517f08c379a00000000000000000000000000000000000000000000000000000000081526004016103f390610e0f565b60405180910390fd5b600254421015610441576040517f08c379a000000000000000000000000000000000000000000000000000000000815260040161043890610e77565b60405180910390fd5b5f60058054905011610488576040517f08c379a000000000000000000000000000000000000000000000000000000000815260040161047f90610edf565b60405180910390fd5b5f73ffffffffffffffffffffffffffffffffffffffff1660065f9054906101000a900473ffffffffffffffffffffffffffffffffffffffff1673ffffffffffffffffffffffffffffffffffffffff1614610517576040517f08c379a000000000000000000000000000000000000000000000000000000000815260040161050e90610f47565b60405180910390fd5b5f6005805490504244604051602001610531929190610f85565b604051602081830303815290604052805190602001205f1c6105539190610fdd565b9050600581815481106105695761056861100d565b5b905f5260205f20015f9054906101000a900473ffffffffffffffffffffffffffffffffffffffff1660065f6101000a81548173ffffffffffffffffffffffffffffffffffffffff021916908373ffffffffffffffffffffffffffffffffffffffff1602179055505f600660146101000a81548160ff02191690831515021790555050565b60065f9054906101000a900473ffffffffffffffffffffffffffffffffffffffff1673ffffffffffffffffffffffffffffffffffffffff163373ffffffffffffffffffffffffffffffffffffffff161461067c576040517f08c379a000000000000000000000000000000000000000000000000000000000815260040161067390611084565b60405180910390fd5b600660149054906101000a900460ff16156106cc576040517f08c379a00000000000000000000000000000000000000000000000000000000081526004016106c3906110ec565b60405180910390fd5b6001600660146101000a81548160ff02191690831515021790555060065f9054906101000a900473ffffffffffffffffffffffffffffffffffffffff1673ffffffffffffffffffffffffffffffffffffffff166108fc60035490811502906040515f60405180830381858888f1935050505015801561074d573d5f803e3d5ffd5b50565b606060058054806020026020016040519081016040528092919081815260200182805480156107d157602002820191905f5260205f20905b815f9054906101000a900473ffffffffffffffffffffffffffffffffffffffff1673ffffffffffffffffffffffffffffffffffffffff1681526020019060010190808311610788575b5050505050905090565b5f60065f9054906101000a900473ffffffffffffffffffffffffffffffffffffffff16905090565b60065f9054906101000a900473ffffffffffffffffffffffffffffffffffffffff1681565b60035481565b600660149054906101000a900460ff1681565b6002544210610885576040517f08c379a000000000000000000000000000000000000000000000000000000000815260040161087c90611154565b60405180910390fd5b60015434146108c9576040517f08c379a00000000000000000000000000000000000000000000000000000000081526004016108c0906111bc565b60405180910390fd5b5f73ffffffffffffffffffffffffffffffffffffffff1660065f9054906101000a900473ffffffffffffffffffffffffffffffffffffffff1673ffffffffffffffffffffffffffffffffffffffff1614610958576040517f08c379a000000000000000000000000000000000000000000000000000000000815260040161094f90611224565b60405180910390fd5b5f805b6005805490508110156109f2573373ffffffffffffffffffffffffffffffffffffffff16600582815481106109935761099261100d565b5b905f5260205f20015f9054906101000a900473ffffffffffffffffffffffffffffffffffffffff1673ffffffffffffffffffffffffffffffffffffffff16036109df57600191506109f2565b80806109ea9061126f565b91505061095b565b508015610a34576040517f08c379a0000000000000000000000000000000000000000000000000000000008152600401610a2b90611300565b60405180910390fd5b600533908060018154018082558091505060019003905f5260205f20015f9091909190916101000a81548173ffffffffffffffffffffffffffffffffffffffff021916908373ffffffffffffffffffffffffffffffffffffffff16021790555050565b60058181548110610aa6575f80fd5b905f5260205f20015f915054906101000a900473ffffffffffffffffffffffffffffffffffffffff1681565b5f81519050919050565b5f82825260208201905092915050565b5f5b83811015610b09578082015181840152602081019050610aee565b5f8484015250505050565b5f601f19601f8301169050919050565b5f610b2e82610ad2565b610b388185610adc565b9350610b48818560208601610aec565b610b5181610b14565b840191505092915050565b5f6020820190508181035f830152610b748184610b24565b905092915050565b5f819050919050565b610b8e81610b7c565b82525050565b5f602082019050610ba75f830184610b85565b92915050565b5f73ffffffffffffffffffffffffffffffffffffffff82169050919050565b5f610bd682610bad565b9050919050565b610be681610bcc565b82525050565b5f602082019050610bff5f830184610bdd565b92915050565b5f81519050919050565b5f82825260208201905092915050565b5f819050602082019050919050565b610c3781610bcc565b82525050565b5f610c488383610c2e565b60208301905092915050565b5f602082019050919050565b5f610c6a82610c05565b610c748185610c0f565b9350610c7f83610c1f565b805f5b83811015610caf578151610c968882610c3d565b9750610ca183610c54565b925050600181019050610c82565b5085935050505092915050565b5f6020820190508181035f830152610cd48184610c60565b905092915050565b5f8115159050919050565b610cf081610cdc565b82525050565b5f602082019050610d095f830184610ce7565b92915050565b5f80fd5b610d1c81610b7c565b8114610d26575f80fd5b50565b5f81359050610d3781610d13565b92915050565b5f60208284031215610d5257610d51610d0f565b5b5f610d5f84828501610d29565b91505092915050565b7f4e487b71000000000000000000000000000000000000000000000000000000005f52602260045260245ffd5b5f6002820490506001821680610dac57607f821691505b602082108103610dbf57610dbe610d68565b5b50919050565b7f4f6e6c79206d616e616765722063616e207069636b2077696e6e6572000000005f82015250565b5f610df9601c83610adc565b9150610e0482610dc5565b602082019050919050565b5f6020820190508181035f830152610e2681610ded565b9050919050565b7f546f6f206561726c7900000000000000000000000000000000000000000000005f82015250565b5f610e61600983610adc565b9150610e6c82610e2d565b602082019050919050565b5f6020820190508181035f830152610e8e81610e55565b9050919050565b7f4e6f20706c6179657273000000000000000000000000000000000000000000005f82015250565b5f610ec9600a83610adc565b9150610ed482610e95565b602082019050919050565b5f6020820190508181035f830152610ef681610ebd565b9050919050565b7f57696e6e657220616c7265616479207069636b656400000000000000000000005f82015250565b5f610f31601583610adc565b9150610f3c82610efd565b602082019050919050565b5f6020820190508181035f830152610f5e81610f25565b9050919050565b5f819050919050565b610f7f610f7a82610b7c565b610f65565b82525050565b5f610f908285610f6e565b602082019150610fa08284610f6e565b6020820191508190509392505050565b7f4e487b71000000000000000000000000000000000000000000000000000000005f52601260045260245ffd5b5f610fe782610b7c565b9150610ff283610b7c565b92508261100257611001610fb0565b5b828206905092915050565b7f4e487b71000000000000000000000000000000000000000000000000000000005f52603260045260245ffd5b7f4f6e6c792077696e6e65722063616e20636c61696d00000000000000000000005f82015250565b5f61106e601583610adc565b91506110798261103a565b602082019050919050565b5f6020820190508181035f83015261109b81611062565b9050919050565b7f5072697a6520616c726561647920636c61696d656400000000000000000000005f82015250565b5f6110d6601583610adc565b91506110e1826110a2565b602082019050919050565b5f6020820190508181035f830152611103816110ca565b9050919050565b7f4c6f747465727920636c6f7365640000000000000000000000000000000000005f82015250565b5f61113e600e83610adc565b91506111498261110a565b602082019050919050565b5f6020820190508181035f83015261116b81611132565b9050919050565b7f496e636f727265637420455448000000000000000000000000000000000000005f82015250565b5f6111a6600d83610adc565b91506111b182611172565b602082019050919050565b5f6020820190508181035f8301526111d38161119a565b9050919050565b7f57696e6e657220616c72656164792073656c65637465640000000000000000005f82015250565b5f61120e601783610adc565b9150611219826111da565b602082019050919050565b5f6020820190508181035f83015261123b81611202565b9050919050565b7f4e487b71000000000000000000000000000000000000000000000000000000005f52601160045260245ffd5b5f61127982610b7c565b91507fffffffffffffffffffffffffffffffffffffffffffffffffffffffffffffffff82036112ab576112aa611242565b5b600182019050919050565b7f596f7520616c726561647920626f756768742061207469636b657400000000005f82015250565b5f6112ea601b83610adc565b91506112f5826112b6565b602082019050919050565b5f6020820190508181035f830152611317816112de565b905091905056fea264697066735822122011869c312347255581b943da6c0b06a4f28a39f3f0dd50bbbdd2a6531c5e6eb164736f6c63430008140033",
  "immutableReferences": {},
  "source": "// SPDX-License-Identifier: MIT\r\npragma solidity ^0.8.20;\r\n\r\ncontract Lottery {\r\n    string public name;\r\n    uint public ticketPrice;\r\n    uint public deadline;\r\n    uint public prize;\r\n    address public manager;\r\n    address[] public players;\r\n    address public winner;\r\n    bool public claimed;\r\n\r\n    constructor(\r\n        string memory _name,\r\n        uint _ticketPrice,\r\n        uint _deadline,\r\n        uint _prize,\r\n        address _creator\r\n    ) payable{ \r\n        require(_ticketPrice > 0, \"Ticket price must be > 0\");\r\n        require(_prize > 0, \"Prize must be > 0\");\r\n        require(_deadline > 0, \"Duration must be > 0\");\r\n        name = _name;\r\n        ticketPrice = _ticketPrice;\r\n        deadline = _deadline;\r\n        prize = _prize;\r\n        manager = _creator;\r\n    }\r\n\r\n    function buyTicket() public payable {\r\n        require(block.timestamp < deadline, \"Lottery closed\");\r\n        require(msg.value == ticketPrice, \"Incorrect ETH\");\r\n        require(winner == address(0), \"Winner already selected\");\r\n        \r\n        // Check if user already bought a ticket\r\n        bool hasTicket = false;\r\n        for (uint i = 0; i < players.length; i++) {\r\n            if (players[i] == msg.sender) {\r\n                hasTicket = true;\r\n                break;\r\n            }\r\n        }\r\n        require(!hasTicket, \"You already bought a ticket\");\r\n        \r\n        players.push(msg.sender);\r\n    }\r\n\r\n    function pickWinner() public {\r\n        require(msg.sender == manager, \"Only manager can pick winner\");\r\n        require(block.timestamp >= deadline, \"Too early\");\r\n        require(players.length > 0, \"No players\");\r\n        require(winner == address(0), \"Winner already picked\");\r\n\r\n        // Generate a random index using a more secure approach\r\n        uint index = uint(keccak256(abi.encodePacked(block.timestamp, block.prevrandao))) % players.length;\r\n        winner = players[index];\r\n        \r\n        // Mark prize as not claimed yet, it will be claimed separately\r\n        claimed = false;\r\n    }\r\n    \r\n    function claimPrize() public {\r\n        require(msg.sender == winner, \"Only winner can claim\");\r\n        require(!claimed, \"Prize already claimed\");\r\n        \r\n        claimed = true;\r\n        // Transfer the prize to the winner\r\n        payable(winner).transfer(prize);\r\n    }\r\n\r\n    function getPlayers() public view returns (address[] memory) {\r\n        return players;\r\n    }\r\n\r\n    function getWinner() public view returns (address) {\r\n        return winner;\r\n    }\r\n}\r\n\r\n",
  "sourcePath": "C:\\Users\\lathi\\OneDrive\\Desktop\\lottery\\contracts\\Lottery.sol",
  "compiler": {
    "name": "solc",
    "version": "0.8.20+commit.a1b79de6.Emscripten.clang"
  },
  "schemaVersion": "3.4.16",
  "updatedAt": "2025-04-26T20:26:41.739Z",
  "devdoc": {
    "kind": "dev",
    "methods": {},
    "version": 1
  },
  "userdoc": {
    "kind": "user",
    "methods": {},
    "version": 1
  }
}